:020000040800F2
:10000000B8080020CD01000875180008B9120008D2
:100010008914000811060008772600080000000077
:10002000000000000000000000000000F11D0008BA
:10003000750B000800000000FD1800087921000879
:10004000E7010008E7010008E7010008E7010008F0
:10005000E7010008E7010008E7010008E7010008E0
:10006000E7010008E7010008E7010008E7010008D0
:10007000E7010008E7010008E7010008E7010008C0
:10008000E7010008E7010008E7010008E7010008B0
:10009000E7010008E7010008E7010008890D0008F2
:1000A000E7010008E7010008E7010008E701000890
:1000B000E7010008DD210008E7010008E70100086A
:1000C000E7010008E7010008E7010008E701000870
:1000D000E701000861230008E9230008E7010008A0
:1000E000790B0008E7010008E7010008E7010008B4
:1000F000E7010008E7010008E7010008E701000840
:10010000E7010008E7010008E7010008E70100082F
:10011000E7010008E7010008E7010008E70100081F
:10012000E7010008E7010008E7010008E70100080F
:1001300000F002F800F03AF80AA090E8000C8244BF
:100140008344AAF10107DA4501D100F02FF8AFF29C
:10015000090EBAE80F0013F0010F18BFFB1A43F0A5
:10016000010318475844000078440000103A24BFA7
:1001700078C878C1FAD8520724BF30C830C144BF0C
:1001800004680C607047000000230024002500264E
:10019000103A28BF78C1FBD8520728BF30C148BFEA
:1001A0000B6070471FB51FBD10B510BD00F033F8D0
:1001B0001146FFF7F7FF02F0A1FB00F051F803B47E
:1001C000FFF7F2FF03BC02F00BFB00000948804779
:1001D00009480047FEE7FEE7FEE7FEE7FEE7FEE729
:1001E000FEE7FEE7FEE7FEE704480549054A064B41
:1001F000704700007D21000831010008B80200208E
:10020000B8080020B8040020B804002070477047E8
:10021000704770477047754600F028F8AE460500F5
:100220006946534620F00700854618B020B5FFF711
:10023000DBFFBDE820404FF000064FF000074FF015
:1002400000084FF0000B21F00701AC46ACE8C009F4
:10025000ACE8C009ACE8C009ACE8C0098D467047FD
:100260000446AFF300802046FFF7A9FF004870471F
:100270005802002021B1826842F00102826003E04E
:10028000826822F0010282607047000010B50446C7
:100290001248844208D10121401501F091FB002150
:1002A000601501F08DFB17E00D48844208D1012153
:1002B000001501F085FB0021201501F081FB0BE00A
:1002C0000848844208D10121C80301F079FB0021CC
:1002D0004FF4004001F074FB10BD00000024014009
:1002E00000280140003C0140014600208A6802F0DD
:1002F00004020AB1012000E0002070470146C86CEA
:1003000080B270470246002013680B400BB10120F9
:1003100000E000207047014600208A6802F00802D1
:100320000AB1012000E000207047000030B502460D
:100330000020002350680F4C20400D790C6844EADF
:1003400005242043506090680B4C2040D1E90254B2
:100350002C434D7944EA450420439060D06A20F450
:1003600070000C7C641EE4B2234340EA0350D06268
:1003700030BD0000FFFEF0FFFDF7F1FFF0B50446D1
:100380000D4600200021092D11DDE068A5F10A06C7
:1003900006EB4607072606FA07F18843A5F10A0689
:1003A00006EB460603FA06F10843E0600CE020691C
:1003B00005EB4507072606FA07F1884305EB4506D6
:1003C00003FA06F108432061072A0FDA606B561E14
:1003D00006EB86071F2606FA07F18843561E06EB32
:1003E000860605FA06F10843606322E00D2A0FDA5B
:1003F000206BD61F06EB86071F2606FA07F18843F7
:10040000D61F06EB860605FA06F10843206310E0C6
:10041000E06AA2F10D0606EB86071F2606FA07F131
:100420008843A2F10D0606EB860605FA06F108439D
:10043000E062F0BD816841F008018160704721B140
:10044000826842F4A002826003E0826822F4A00283
:1004500082607047816841F004018160704700004C
:100460002DE9F14F8CB0002400200A9000254FF0B8
:10047000050900262AE0484603F054FB0746884653
:100480000C9800F0CFFD019003F04CFB0022314BA3
:10049000CDE9020103F096FB82463A46434603F05B
:1004A00075F9CDE90601284603F03CFBCDE90401CE
:1004B000DDE9062303F0B6F8CDE9080103F0EEFA12
:1004C0000546012002F0F4F9701CC6B24E45D2DB9D
:1004D000214800680A2190FBF1F201FB12001F493C
:1004E00021F810501C480068401C1B49086000247B
:1004F0001FE01A4931F8140003F014FB07460022EC
:10050000144B03F05FFB82460022154B03F03EF9CB
:10051000CDE906010A9803F073FDCDE90401DDE998
:10052000062303F07FF8CDE9080103F049F80A90AB
:10053000641C0A2CDDDB0A9803F062FD8246094A3E
:10054000094B03F03FFB074603F03AF80DB0BDE856
:10055000F08F00000000F03F280000203C01002048
:10056000000024401F85EB51B81EF53F00B587B051
:10057000012140F20D2001F013FA4FF4004001F088
:10058000E3F9C320ADF8180000208DF81B0006A980
:100590001C4800F0AFFC0320ADF8180000208DF8D7
:1005A0001B0006A9184800F0A5FC1848FFF76EFECE
:1005B000002001908DF808008DF809004FF46020AC
:1005C00003900020049001208DF8140001A90F4829
:1005D000FFF7ACFE01210D48FFF74CFE0B48FFF77B
:1005E00029FF00BF0948FFF796FE0028FAD1074807
:1005F000FFF730FF00BF0548FFF776FE0028FAD16D
:1006000007B000BD00080140000C0140002401407B
:1006100000BFFEE710B50446012C04D13C21204662
:1006200001F004F904E06FF03B01204601F0FEF810
:1006300010BD00002DE9F04104466079217940EABF
:10064000012017490880E079A17940EA0120144986
:10065000488008464088098848430A2190FBF1F009
:100660000F49888002200F4908700D49488803F01F
:1006700059FA07463A460B4600200B4903F086F824
:10068000054603F00BFA0949088041F61F40091F8F
:100690000880012105482C3801F0E9FDBDE8F08112
:1006A00078000020760000200088C3402C04004021
:1006B00070B504460D46012D1DD1012C06D0022C2B
:1006C00009D0032C0CD0042C14D10EE004211948BD
:1006D00000F0A6FC0EE00821164800F0A1FC09E09D
:1006E0001021144800F09CFC04E02021114800F087
:1006F00097FC00BF1DE0012C06D0022C09D0032C72
:100700000CD0042C14D10EE004210A4800F086FC21
:100710000EE00821074800F081FC09E0102105489F
:1007200000F07CFC04E02021024800F077FC00BFD0
:1007300000BF70BD001801401CB5044600200090A9
:10074000019055208DF8000006208DF80100002052
:100750008DF802008DF803008DF804008DF8050077
:100760008DF806008DF80700E079062803D10320F4
:100770000649887005E0E079082802D10420034981
:100780008870684600F07EFB1CBD000080000020E1
:1007900010B504462079012804D16421022001F01B
:1007A00045F810E06079012809D11948006801284E
:1007B00009D06FF06301022001F038F803E0002156
:1007C000022001F033F8A079012809D11048001F58
:1007D0000068012810D06421012001F027F80BE007
:1007E000E079012804D16FF0630101F01FF803E004
:1007F0000021012001F01AF8207961790843A179DC
:100800000843E179084310B901200249087010BD7E
:10081000248122428A00002070B5044600252079F8
:10082000012809D117480068012819D06FF03B0151
:10083000032000F0FBFF13E06079012804D13C2184
:10084000032000F0F3FF0BE0A079012804D10A2176
:10085000032000F0EBFF03E00021032000F0E6FF9F
:10086000E079012808D1E078A17840EA01252946FD
:10087000042000F0DBFF03E00021042000F0D6FF9D
:1008800070BD00002881224270B504460D46012D3E
:1008900028D1072C25D2DFE804F024040A10151A09
:1008A0001F004FF40051244800F0BAFB19E04FF448
:1008B0008051214800F0B4FB13E080211F4800F074
:1008C000AFFB0EE040211D4800F0AAFB09E020210B
:1008D0001A4800F0A5FB04E01021184800F0A0FB26
:1008E00000BF28E0072C25D2DFE804F024040A101A
:1008F000151A1F004FF400510F4800F08FFB19E04C
:100900004FF480510C4800F089FB13E080210B4824
:1009100000F084FB0EE04021084800F07FFB09E076
:100920002021064800F07AFB04E01021034800F083
:1009300075FB00BF00BF70BD0020014000140140E6
:1009400010B50446A078012807D11E21032000F02D
:100950006DFF03203249087013E0E07801280CD1C4
:1009600003202F4908702F480068012809D06FF034
:100970001D01032000F05AFF03E00021032000F0D6
:1009800055FF2079012807D16421022000F04EFF95
:1009900002202349087014E0607901280DD102205B
:1009A0001F4908701F48001F0068012809D06FF018
:1009B0006301022000F03AFF03E00021022000F072
:1009C00035FFA07901280BD1154908701548083862
:1009D0000068012813D06421012000F027FF0EE0F9
:1009E000E079012807D16FF0630100F01FFF0120BB
:1009F0000B49087003E00021012000F017FFA078E8
:100A0000E17808432179084361790843A1790843D3
:100A1000E179084310B901200149487010BD000078
:100A20007E000020288122421CB504460020009050
:100A3000019055208DF8000005208DF80100002060
:100A40008DF802008DF803008DF8040060798DF8B0
:100A50000500A0798DF80600E0798DF8070060792F
:100A6000012803D10D490870487013E0A0790128CE
:100A700008D10A48407808B9012000E00020074961
:100A8000487007E0E079012804D10020034908708C
:100A900048708870684600F0F5F91CBD80000020A1
:100AA00010B504462078002838D160780E2834D25A
:100AB000DFE800F033070B0F13171B1F2333332717
:100AC0002B2F204601F03EFB27E0204601F05CF88A
:100AD00023E02046FFF7A0FE1FE02046FFF758FE68
:100AE0001BE02046FFF7A0FF17E02046FFF724FE9B
:100AF00013E0204601F0A6F90FE02046FFF79AFD2B
:100B00000BE02046FFF71CFF07E0204601F04AFA01
:100B100003E0204601F0FCFA00BF2AE020785028CC
:100B200027D16078092823D2DFE800F02205090DDB
:100B30001112161A1E00204600F060FB18E0204635
:100B400000F0D8FA14E0204600F0B2FA10E00FE00E
:100B5000204600F093FB0BE0204600F08FFA07E000
:100B6000204600F079FA03E0204600F0E7FA00BFE3
:100B700000BF10BD7047000010B57B480068012819
:100B80000AD10021032000F051FE784800780128A6
:100B900002D10320764908704FF4806000F022F9FA
:100BA0007148001D00684FF4006000F01BF97148A7
:100BB000D0F83001E0B96D480078052804D1012053
:100BC0006D490870487013E06848007804280FD118
:100BD00005206A4908700820487000208870C87095
:100BE0000871487188710120C871084600F04AF9FF
:100BF0004FF4805000F0F6F85B480C300068A0B964
:100C00005A480078052808D15B48407808B9012087
:100C100000E000205849487007E054480078042854
:100C200003D101210846FFF72FFE4FF4005000F0DA
:100C3000D9F84D481030006800286CD14B48007836
:100C400005284AD10021012000F0F0FD00210220FA
:100C500000F0ECFD0021032000F0E8FD002104205D
:100C600000F0E4FD0021052000F0E0FD00204249F5
:100C70000870012048700020887000224FF496719F
:100C8000032000F003FC4FF47A7001F0EBFD4FF409
:100C90007A7001F0E7FD00224FF49671012000F018
:100CA000F5FB00224FF49671022000F0EFFB4FF4A9
:100CB0007A7001F0D7FD4FF47A7001F0D3FD002275
:100CC0004FF49671052000F0E1FB01202C490860EB
:100CD0004FF4FA7001F0C6FD06E0244800780428BD
:100CE00002D10121FFF7D0FD0021012000F09EFD7F
:100CF0000021022000F09AFD0021032000F096FD63
:100D00000021042000F092FD0021052000F08EFD5E
:100D100000201C4908704FF4804000F063F812482E
:100D200014300068D8B911480078042817D1002180
:100D30000120FFF7A9FD00210220FFF7A5FD0021FA
:100D40000320FFF7A1FD00210420FFF79DFD0021F6
:100D50000520FFF799FD00210620FFF795FD4FF4D0
:100D6000004000F03FF810BD2881224276000020AC
:100D70002E00002000802242800000203D00002044
:100D8000840122423400002010B513480068012875
:100D900008D1002100F04AFD10480078012801D157
:100DA0000F4908704FF4807000F01CF80A48001DCD
:100DB000006801280AD10021022000F037FD074811
:100DC0000078012802D10220054908704FF4007014
:100DD00000F008F810BD00002081224276000020BB
:100DE0002E000020014908607047000014040140F3
:100DF000002123498279002A3AD00A461268036802
:100E00009A430B461A600A1D126803689A430B1D29
:100E10001A60027911440A6803681A430A60184A82
:100E20000832126803689A43154B08331A601A1D7A
:100E3000126803689A43124B0C331A604279102AE5
:100E40000ED11A1F126803681A430D4B08331A603B
:100E50001A1D126803681A43094B0C331A600DE01F
:100E60000749427911440A6803681A430A6005E099
:100E7000027911440A6803689A430A6070470000C7
:100E80000004014070B50546002400BF0CE0295D58
:100E9000074801F0ECFB00BF4021054801F019FBB9
:100EA0000028F9D0601CC4B2082CF0DB70BD000033
:100EB0000038014030B500228B071C0F0F2303FAC6
:100EC00004F20B4B8C1053F824309343084C8D10D4
:100ED00044F8253023468C1053F824308C07240F17
:100EE00000FA04F42343024C8D1044F8253030BD41
:100EF000080001402DE9F0410246002500260020AF
:100F000000230024002791F803C00CF00F0591F88E
:100F100003C00CF0100CBCF1000F03D091F802C01C
:100F20004CEA050591F800C0BCF1000F31D01468FF
:100F300000202BE04FF0010C0CFA00F3B1F800C0D8
:100F40000CEA03069E4220D183004FF00F0C0CFAEE
:100F500003F7BC4305FA03FC4CEA040491F803C010
:100F6000BCF1280F06D14FF0010C0CFA00FCC2F8BE
:100F700014C00AE091F803C0BCF1480F05D14FF04E
:100F8000010C0CFA00FCC2F810C0401C0828D1D398
:100F90001460B1F800C0BCF1FF0F34DD54680020CC
:100FA0002EE000F1080C4FF0010808FA0CF3B1F83C
:100FB00000C00CEA03069E4221D183004FF00F0CC3
:100FC0000CFA03F7BC4305FA03FC4CEA040491F85D
:100FD00003C0BCF1280F05D100F1080C08FA0CF889
:100FE000C2F8148091F803C0BCF1480F07D100F19A
:100FF000080C4FF0010808FA0CF8C2F81080401CE9
:101000000828CED35460BDE8F081024600209368E2
:101010000B400BB1012000E0002070474161704798
:101020000161704710B50446072301222146094893
:10103000FFF7A4F901210748FFF701FA00BF0221D9
:101040000448FFF75FF90028F9D00248FFF756F986
:1010500010BD00000024014010B50446E178A278DC
:1010600041EA022003F0D6F802490860092002494B
:10107000887010BD480000208000002010B5044694
:10108000E178A27841EA022003F0C4F8064908603A
:101090006179227941EA022003F0BCF802494860F4
:1010A00007200249887010BD5001002080000020F8
:1010B00010B50446E178A27841EA022003F0AAF8CC
:1010C0000A4908606179227941EA022003F0A2F816
:1010D00006494860E179A27941EA022003F09AF8D2
:1010E0000249886006200249887010BD7C010020FA
:1010F0008000002010B50446E178A27841EA022081
:1011000003F088F80A49C8606179227941EA02202F
:1011100003F080F807490860E179A27941EA0220EA
:1011200003F078F80349486002200349887010BD35
:101130007C0100206801002080000020C1788278B6
:1011400041EA0221084A11804179027941EA0221EB
:10115000054A5180C179827941EA0221024A91808F
:101160000121024A117070477000002077000020B2
:1011700010B500244FF400511E48FFF746FF04430A
:101180004FF480511B48FFF740FF44EA40048021A0
:101190001948FFF73AFF44EA800440211648FFF758
:1011A00034FF44EAC00420211348FFF72EFF44EA2D
:1011B000001410211048FFF728FF44EA40140821CA
:1011C0000D48FFF722FF44EA801404210A48FFF784
:1011D0001CFF44EAC01402210748FFF716FF44EA47
:1011E000002401210448FFF710FF44EA402084B2A4
:1011F000204610BD00200140001401402DE9F041BF
:101200000446E178A27841EA0221484202F073FCE8
:1012100007460022164B02F0B9FA054602F0D0F953
:10122000144908606179227941EA022002F063FCE6
:10123000074600220E4B02F0A9FA054602F0C0F95B
:101240000C494860E179A27941EA022002F053FC9E
:1012500007460022064B02F099FA054602F0B0F963
:1012600004498860012004498870BDE8F0810000CD
:1012700000005940500100208000002010B50446B5
:10128000E178A27841EA022002F0C4FF0849086030
:101290006179227941EA022002F0BCFF04494860EA
:1012A000E079092802D105200249887010BD0000AC
:1012B000680000208000002000BFFEE71FB501216C
:1012C000212000F06DFB4FF47F40ADF80C0048206A
:1012D0008DF80F0003208DF80E0003A95C48FFF77E
:1012E00009FE08210320FFF7E5FD4FF4807001900F
:1012F00000208DF8080008208DF8090001208DF8E5
:101300000A0001A8FFF774FD09210320FFF7D2FDB1
:101310004FF40070019000208DF8080008208DF82F
:10132000090001208DF80A0001A8FFF761FD0A21DC
:101330000320FFF7BFFD4FF48060019000208DF87F
:10134000080008208DF8090001208DF80A0001A886
:10135000FFF74EFD0B210320FFF7ACFD4FF40060BB
:10136000019000208DF8080008208DF80900012068
:101370008DF80A0001A8FFF73BFD0C210320FFF7C1
:1013800099FD4FF48050019000208DF808000C204A
:101390008DF8090001208DF80A0001A8FFF728FD4B
:1013A0000D210320FFF786FD4FF40050019000202F
:1013B0008DF808000C208DF8090001208DF80A0036
:1013C00001A8FFF715FD0E210320FFF773FD4FF471
:1013D0008040019000208DF808000C208DF8090055
:1013E00001208DF80A0001A8FFF702FD0F2103205C
:1013F000FFF760FD4FF40040019000208DF80800D9
:101400000C208DF8090001208DF80A0001A8FFF7D3
:10141000EFFC17208DF8000000208DF8010003205C
:101420008DF8020001208DF80300684600F024FAD0
:1014300028208DF8000000208DF8010003208DF891
:10144000020001208DF80300684600F015FA1FBD68
:101450000014014008B50121502000F0A1FA03203A
:10146000ADF8000010208DF8030003208DF8020075
:1014700069460348FFF73EFD00200249086008BDA9
:10148000001001408001224200BFFEE72DE9F04F2D
:101490008BB005460E469146A1490868A14902F065
:1014A00049FE09D19E494868002102F043FE03D15C
:1014B00000208DF8280002E001208DF828009849CE
:1014C0008868984902F036FE09D19549C86800211C
:1014D00002F030FE03D100208DF8290002E0012047
:1014E0008DF829008E4908698E4902F023FE09D142
:1014F0008B494869002102F01DFE03D100208DF8C0
:101500002A0002E001208DF82A00012D04D0022DCE
:101510004FD0032D4CD198E08349484602F0A6FEF7
:1015200001D8DFF804929DF82800012836D17C49C3
:1015300048687E4902F0CEFE074602F061FDCDE923
:1015400006017749086802F05BFD07460022784BE8
:1015500002F01CF982468B467649086802F05AFE72
:1015600080467549484602F0B5FE4146019002F0BA
:1015700073FD074602F044FD52465B46CDE9020189
:1015800002F020FBCDE90401DDE9062302F04AF870
:10159000CDE9080102F052FA044609E066494846DE
:1015A00002F098FE074602F0F9FD62490968441806
:1015B00097E06249484602F059FF01D8DFF87C9174
:1015C0009DF82900012835D15549C868574902F0CE
:1015D00081FE824602F014FDCDE908015049886879
:1015E00002F00EFD82460022514B02F0CFF8CDE909
:1015F00004015049486802F00DFE83464E494846B2
:1016000002F068FE5946019002F026FD824602F083
:10161000F7FCCDE90201DDE9042302F0D3FACDE9BC
:101620000601DDE9082301F0FDFF074602F006FA96
:10163000044609E04049484602F04CFE074602F0E5
:10164000ADFD3C49496844184BE03D49484602F02D
:101650000DFF01D8DFF8E8909DF82A00012835D168
:101660002F494869314902F035FE074602F0C8FCAF
:10167000CDE906012A49086902F0C2FC00222C4B80
:10168000CDE9020102F082F8CDE904012949886818
:1016900002F0C0FD28490290484602F01BFE01906E
:1016A000029902F0D9FC039002F0AAFC0746DDE99A
:1016B000042302F087FA8246DDE9062301F0B2FF37
:1016C000CDE9080102F0BAF9044609E01A49484692
:1016D00002F000FE074602F061FD164989684418D1
:1016E00000BF00BFB2B240F27E51284601F030F890
:1016F00014490C804FF6FF7000EA24404880022312
:101700000A4640F20A61284600F0B8FF022240F281
:101710000E51284601F01CF80BB0BDE8F08F000018
:101720004C00002000007A44001B37CA0000204112
:1017300000408F40B800002000401C460024F449BF
:1017400000247449C80000202DE9F04105460E46EA
:1017500002224FF4A461284600F06EFA642001F0E2
:1017600081F8012D0AD11949304602F0B3FD074630
:1017700002F014FD16490968441818E0022D0AD138
:101780001249304602F0A6FD074602F007FD104957
:10179000496844180BE0032D09D10C49304602F08A
:1017A00099FD074602F0FAFC09498968441809487E
:1017B0000068001B032807DA06480068201A03287F
:1017C00002DA0120BDE8F0810020FBE700401C4662
:1017D000B80000201800002010B50446FF224FF486
:1017E0004371204600F0B4FF11200F49088000200B
:1017F000488002230A4640F20461204600F03EFF82
:101800003220094908800320488002230A464FF409
:10181000C161204600F032FFFF2240F20E41204617
:1018200000F096FF10BD0000C800002070B505460E
:101830000C4604EB84004FF6FF7101EA40000C49AE
:10184000088004EB840040004FF6FF7101EA20405D
:101850000749488002230A4640F20661284600F004
:101860000DFF012240F20E51284600F071FF70BDBD
:10187000C80000207047000070B5002100230F222F
:10188000C47804B3154C246804F4E064C4F5E0643F
:10189000210AC1F10403CA40447804FA03F18478B0
:1018A0001440214309010E4C0678A155047804F038
:1018B0001F050124AC4005786D11AD0005F1E02550
:1018C000C5F8004109E0047804F01F050124AC408C
:1018D000044D0678761145F8264070BD0CED00E009
:1018E00000E400E080E100E002490143024A1160A7
:1018F000704700000000FA050CED00E070470000A2
:101900002DE9F14F82B00E48006802F079FB0446E1
:101910000D460298FEF7A4FD009002F071FB804690
:101920000022084B02F04EF9064622462B4601F0F3
:101930002DFF824601F044FE01900198BDE8FE8F24
:10194000640000200000244001460020034A506843
:1019500020F44040084350607047000000100240EF
:1019600029B1064AD2690243044BDA6104E0034A12
:10197000D2698243014BDA617047000000100240D7
:1019800029B1064A12690243044B1A6104E0034A72
:1019900012698243014B1A61704700000010024037
:1019A00029B1064A92690243044B9A6104E0034A52
:1019B00092698243014B9A61704700000010024017
:1019C00029B1064AD2680243044BDA6004E0034AB4
:1019D000D2688243014BDA60704700000010024079
:1019E00030B500210022002400232D4D6D6805F044
:1019F0000C0121B1042905D0082923D105E0294D86
:101A0000056022E0274D05601FE0254D6D6805F457
:101A10007012234D6D6805F48034022505EB924267
:101A20001CB9214D554305600BE01D4D6D6805F453
:101A300000351DB11C4D5543056002E0194D55435D
:101A4000056002E0174D056000BF00BF144D6D68D2
:101A500005F0F0010909154D6B5C0568DD40456036
:101A60000F4D6D6805F4E061090A104D6B5C456827
:101A7000DD4085600A4D6D6805F46051C90A0B4D63
:101A80006B5C4568DD40C560054D6D6805F44041FF
:101A9000890B074D6B5CC568B5FBF3F5056130BD7F
:101AA0000010024000127A0000093D008B00002067
:101AB0009B00002010B586B0044601212420FFF7CA
:101AC0006FFF01214804FFF74BFF4FF40060ADF8B2
:101AD000140010208DF8170003208DF8160005A9BA
:101AE0002648FFF707FA0420ADF8140018208DF8F7
:101AF000170005A92148FFF7FDF90820ADF81400EB
:101B000004208DF8170005A91C48FFF7F3F90121FF
:101B10004804FFF735FF00214FF40030FFF730FF96
:101B200001940020ADF80800ADF80A00ADF80C00F3
:101B3000ADF810000C20ADF80E0001A9104800F01F
:101B400025FD26208DF8000003208DF801008DF87A
:101B5000020001208DF803006846FFF78DFE012288
:101B600040F22551064800F0EBFC0121044800F04A
:101B7000A4FC00200349086006B010BD0008014025
:101B800000440040AC0121427CB504460020009096
:101B9000019055208DF8000002208DF801000020F2
:101BA0008DF80200E07800F001010120FEF76CFEE4
:101BB000E078C0F340010220FEF766FEE078C0F353
:101BC00080010320FEF760FEE078C0F3C00104202E
:101BD000FEF75AFEE078C0F300110520FEF754FE30
:101BE000E078C0F340110620FEF74EFEFFF7C0FA82
:101BF000054605F03F008DF803000020FEF730FC9D
:101C0000064602F0E7FA85B228128DF80400E8B221
:101C10008DF805000120FEF723FC064602F0DAFAF3
:101C200085B228128DF80600E8B28DF807006846E4
:101C3000FFF728F97CBD00002DE9F04106460C466F
:101C400017462348077000202249087001202249C6
:101C500008702248067003202049487020128870BE
:101C6000CC70002008710220487106211B4800F04A
:101C7000BAFD8046194981F806804FEA1820C871DC
:101C80000120174908600A2000F0ECFD00250DE056
:101C900000BF4021134800F01CFC0028F9D00F4879
:101CA000415D104800F0E3FC681CC5B2082DEFDB75
:101CB00000BF40210B4800F00CFC0028F9D00020A8
:101CC000074908600A2000F0CDFDBDE8F081000062
:101CD0001600002014000020150000201C00002029
:101CE000AC01214200440040012804D0022813D056
:101CF000032833D121E01A490979194AD27841EAF7
:101D00000221174A527941EA0261154A927941EA61
:101D10000241144A116021E011490979104AD27830
:101D200041EA02210E4A527941EA02610C4A927953
:101D300041EA02410B4A516010E009490979084A19
:101D4000D27841EA0221064A527941EA0261044A04
:101D5000927941EA0241034A916000BF00BF704797
:101D6000A0000020B800002008B501214FF4B87091
:101D7000FFF716FEFF20ADF8000010208DF80300DD
:101D800003208DF8020069461548FFF7B3F84FF4B9
:101D90004050ADF8000010208DF8030003208DF8AE
:101DA000020069460F48FFF7A5F80120ADF80000D2
:101DB00010208DF8030003208DF8020069460A48C0
:101DC000FFF798F83C20ADF8000010208DF80300D4
:101DD00003208DF8020069460448FFF78BF808BD20
:101DE0000014014000200140001001400018014093
:101DF0007047000010B504460520074908700846E2
:101E0000447000208870C870087148718871C8716A
:101E10000846FFF737F810BD3D00002010B5044616
:101E20000520074908700420487000208870C87099
:101E30000871487188710846C471FFF723F810BD16
:101E40003D0000201CB50446002000900190552064
:101E50008DF8000006208DF8010000208DF80200AA
:101E60008DF803008DF804008DF805008DF806004C
:101E7000E0798DF80700E178A27841EA022002F0CB
:101E8000C9F90C49C8606179227941EA022002F05F
:101E9000C1F908490861E079012803D10820064901
:101EA000887002E00A20044988706846FEF7EAFF5D
:101EB0001CBD0000500100208000002010B500F083
:101EC00001F810BD0CB50020019000903348006867
:101ED00040F480303149086000BF3048006800F4A9
:101EE000003000900198401C0190009818B90198AA
:101EF000B0F5A06FF1D12948006800F4003010B1AE
:101F00000120009001E0002000900098012843D1BA
:101F10002348006840F01000214908600846006826
:101F200020F0030008600846006840F002000860E6
:101F30001A484068194948600846406848600846A1
:101F4000406840F4806048600846406820F47C1097
:101F500048600846406840F4E81048600846006859
:101F600040F08070086000BF0C48006800F000700E
:101F70000028F9D00948406820F00300074948606C
:101F80000846406840F00200486000BF03484068CF
:101F900000F00C000828F9D10CBD00000010024030
:101FA0000020024010B50446A078012804D0022881
:101FB0003AD0032837D16FE06179227941EA0220D3
:101FC00002F028F951490860E179A27941EA02203A
:101FD00002F020F94D494860E078012808D1084610
:101FE000006808600846406880F0004048601AE0D9
:101FF000E078022809D14548006880F00040434954
:1020000008600846406848600DE0E07803280AD17F
:102010003E48006880F000403C490860084640683F
:1020200080F0004048606FE06179227941EA022047
:1020300002F0F0F835498860E179A27941EA02209E
:1020400002F0E8F83149C860E078012808D1084674
:10205000806888600846C06880F00040C8601AE068
:10206000E078022809D12948806880F0004027499B
:1020700088600846C068C8600DE0E07803280AD18F
:102080002248806880F00040204988600846C06887
:1020900080F00040C86037E06179227941EA02208F
:1020A00002F0B8F819490861E179A27941EA022001
:1020B00002F0B0F815494861E078012808D10846D7
:1020C000006908610846406980F0004048611AE0F4
:1020D000E078022809D10D48006980F000400B49E2
:1020E00008610846406948610DE0E07803280AD19C
:1020F0000648006980F000400449086108464069CC
:1021000080F00040486100BF00BF10BD4C000020BF
:102110002DE9F0410446E179A27941EA022001F07B
:10212000EAFC07460022054B01F030FB054601F0B2
:1021300047FA03490860BDE8F08100000000244030
:1021400064000020C179014A1170704776000020B8
:10215000042808D14FF0E021096941F004014FF053
:10216000E022116107E04FF0E021096921F004014C
:102170004FF0E022116170477047000010B513481E
:10218000006840F0010011490860084640681049A5
:1021900008400E494860084600680E4908400B494F
:1021A00008600846006820F48020086008464068FF
:1021B00020F4FE0048604FF41F008860FFF77EFEA9
:1021C0004FF000600449086010BD0000001002409C
:1021D0000000FFF8FFFFF6FE08ED00E010B501215A
:1021E000084800F050F858B10121064800F03CF8CA
:1021F00001200549087005480088401C03490880F3
:1022000010BD000000040040240000202600002033
:102210007FB505460C4601210220FFF7A1FBADF872
:102220000850ADF804400020ADF80A00ADF80600F3
:1022300001A90C4800F042F801221146094800F0BB
:1022400033F81D208DF8000002208DF801000320D6
:102250008DF8020001208DF803006846FFF70CFBA3
:102260007FBD000000040040CA430282704721B1D4
:10227000028842F00102028004E002884FF6FE73F9
:102280001A400280704730B5024600200023002427
:10229000158A05EA0103958905EA010413B10CB119
:1022A000012000E0002030BD1AB183890B438381F7
:1022B00002E083898B4383817047000000220288FB
:1022C0001D4B98420ED01D4B98420BD0B0F1804F61
:1022D00008D01B4B984205D01A4B984202D01A4B9B
:1022E000984204D14FF68F731A404B881A43174B0C
:1022F000984207D0164B984204D04FF6FF431A403D
:10230000CB881A4302808B8883850B8803850A4B10
:1023100098420BD0094B984208D00E4B984205D0FA
:102320000D4B984202D00D4B984201D10B7A038697
:102330000123838270470000002C014000340140DB
:102340000004004000080040000C00400010004065
:10235000001400400040014000440140004801409A
:1023600010B540F225511B4800F0C0F880B3194861
:1023700000F078F9C4B2184801780078401C164A79
:10238000107016484454007818B11448007850284A
:1023900016D112484078102812DA0F480078082821
:1023A00011D10F48006808B9012000E000200C4955
:1023B000086001200B49087000200749087002E0FE
:1023C00000200549087040F22551024800F066F8E7
:1023D00010BD00000038014034000020350000200E
:1023E000840122424500002010B540F225512548C5
:1023F00000F07CF800283ED0224800F033F9C4B247
:10240000214801780078401C1F4A10701F4844542E
:102410001F48007801282BD11046007809282AD1BE
:102420000020114608701948407803281CD119482B
:102430000078012804D115490878FFF755FC13E00E
:102440001448007802280FD1104800790F49C97844
:1024500040EA01200D49497940EA01600B49897938
:1024600040EA01400C49086000200949087002E078
:1024700000200549087040F22551024800F00EF88E
:1024800010BD00000044004014000020A000002007
:1024900015000020160000201800002010B50022B2
:1024A000002340F66A14A14200D100BF0A120124A1
:1024B0009440A3B2DC43048010BD21B1828942F470
:1024C0000052828104E082894DF6FF731A408281B6
:1024D000704702460020B1F5007F00D100BF13888D
:1024E0000B400BB1012000E00020704770B50246A0
:1024F000002400230025002040F66A16B14200D1D6
:1025000000BFC1F3421501F01F03012606FA03F3D1
:10251000012D02D19689334006E0022D02D1168AA0
:10252000334001E0968A33400C12012606FA04F487
:102530001688344013B10CB1012000E0002070BDBA
:10254000F0B50346002400260025002040F66A1757
:10255000B94200D100BF1846C1F3421401F01F0672
:10256000012707FA06F5012C01D10C3004E0022CFA
:1025700001D1103000E014301AB107682F43076012
:1025800002E00768AF430760F0BD00002DE9F047A7
:1025900086B005460E460024A24600BFA14600278D
:1025A000B08900B100BF2F462C8A4CF6FF70044062
:1025B000F08804432C82AC894EF6F3100440B088B6
:1025C00031890843718908430443AC81AC8A4FF6D2
:1025D000FF400440B0890443AC8201A8FFF700FA31
:1025E0001F48874202D1DDF810A001E0DDF80CA001
:1025F000A88900F4004040B10AEBCA0000EB0A10C1
:1026000031684900B0FBF1F807E00AEBCA0000EBC3
:102610000A1031688900B0FBF1F86420B8FBF0F0D3
:1026200004012009642101FB1089A88900F40040FD
:1026300040B1322000EBC900B0FBF1F000F0070020
:10264000044308E0322000EB09106421B0FBF1F0F4
:1026500000F00F0004432C8106B0BDE8F0870000B5
:102660000038014001468888C0F308007047C1F374
:1026700008028280704700BFFEE700002DE9F047A6
:1026800081460E4617461D462E4880F800901020C1
:102690002C49487030128870CE70002008710846AE
:1026A00045716806000E887100240DE037F81400AB
:1026B00001126000C01D234A115417F81410600065
:1026C00008301154601CC4B2AC42EFDB6000C01D86
:1026D000C1B21C4800F087F880466000C01D194A4E
:1026E00002F80080C8F30721600008301154600030
:1026F000093000F0FF0A0120134908600A2000F0A9
:10270000B1F800240DE000BF40211048FFF7E1FEC2
:102710000028F9D00B48015D0C48FFF7A8FF601CAA
:10272000C4B25445EFDB00BF40210848FFF7D1FE9B
:102730000028F9D00020044908600A2000F092F82F
:10274000BDE8F087DC000020AC01214200440040DD
:102750002DE9F04107460C4615461E480770062035
:102760001C49487020128870CC70281208714D7175
:102770000621184800F037F88046164981F806808F
:102780004FEA1820C8710120134908600A2000F0A0
:1027900069F800260DE000BF40211048FFF799FEC0
:1027A0000028F9D00B48815D0C48FFF760FF701CD2
:1027B000C6B2082EEFDB00BF40210848FFF789FEB4
:1027C0000028F9D00020044908600A2000F04AF8E7
:1027D000BDE8F0811C000020AC0121420044004013
:1027E000014600BF704730B502460B464FF6FF70FA
:1027F00010E012F8014B6040002109E000F00104F4
:1028000024B14AF2010484EA500000E04008491C67
:102810000829F3DB1C00A3F10105EBB2E9D130BDBF
:1028200010B56FF00400FFF793FC0A4800680A49EE
:10283000B0FBF1F0094908700846007800EB400150
:10284000C1EBC0104FF6FF7101EAC00004490880D7
:1028500010BD00000000002000127A0030000020AF
:10286000320000200146114A12884A434FF0E0230B
:102870005A6100229A611A46126942F001021A61F5
:1028800000BF4FF0E022106900F001021AB100F41D
:102890008032002AF5D04FF0E022126922F00102C6
:1028A0004FF0E0231A6100229A6170473200002045
:1028B0000146114A12784A434FF0E0235A61002240
:1028C0009A611A46126942F001021A6100BF4FF084
:1028D000E022106900F001021AB100F48032002AEF
:1028E000F5D04FF0E022126922F001024FF0E02310
:1028F0001A6100229A617047300000201FB54FF026
:1029000000090025FFF78CFFFEF7A4FD4FF4E1302E
:1029100000F0FCFDFFF728FA4FF4A060FEF7E4FF9B
:102920004FF41650FFF7C6F8FDF720FEFEF7C6FC81
:102930000121FE48FDF783FD41F61F4141F287303A
:10294000FFF766FCC820FFF78DFFFF2240F20E4123
:102950000320FFF7FDFE0120FEF73EFF0220FEF7F9
:102960003BFF0320FEF738FF0520FEF735FF04206C
:10297000FEF732FFC820FFF775FF0120FEF72CFF9E
:102980000220FEF729FF0320FEF726FF0520FEF7B1
:1029900023FF0420FEF720FFC820FFF763FF01207C
:1029A000FEF71AFF0220FEF717FF0320FEF714FFC1
:1029B0000520FEF711FF0420FEF70EFFC820FFF7E9
:1029C00051FF0120FEF708FF0220FEF705FF03205C
:1029D000FEF702FF0520FEF7FFFE0420FEF7FCFED7
:1029E00001210846FDF764FEC820FFF73BFF0121E7
:1029F0000220FDF75DFEC820FFF734FF0121032010
:102A0000FDF756FEC820FFF72DFF01210420FDF73A
:102A10004FFE4FF47A70FFF725FFFCE3C4480078BF
:102A200001287ED1C348007840B9B9F1000F05D123
:102A30000120FDF7EFFD4FF0010918E0BD480078D7
:102A4000012808D1B9F1000F05D10220FDF7E2FD00
:102A50004FF001090BE0B7480078022807D1B9F11F
:102A6000000F04D10320FDF7D5FD4FF00109B24856
:102A70000078002853D0B0480078012804D00228FC
:102A800011D003282DD11DE001224FF4A46110467E
:102A9000FFF7D2F83220FFF7E5FE0120A5490870C4
:102AA0004FF000091DE001224FF4A4610220FFF75E
:102AB000C3F83220FFF7D6FE02209E4908704FF07F
:102AC00000090EE001224FF4A4610320FFF7B4F8DF
:102AD0003220FFF7C7FE0320964908704FF0000927
:102AE00000BF00BF00209449087092480078032876
:102AF00015D10120914908609149C1F88001002059
:102B00008B4908708B4908704FF49670FFF7AAFE46
:102B100000208A49091F08608949C1F88401DAE365
:102B2000FFE783480078022842D1864800780128D0
:102B30002ED155208DF8080008208DF80900824814
:102B4000008800128DF80A007F4800788DF80B008D
:102B50000020FDF785FC074601F03CFB85B22812FA
:102B60008DF80C00E8B28DF80D000120FDF778FC1F
:102B7000074601F02FFB85B228128DF80E00E8B24F
:102B80008DF80F0002A8FEF77DF900206D4908704E
:102B90006E4880886C4909888842C0DC00216C48F6
:102BA000FFF765FB0020624908706749088092E3DF
:102BB0005F480078032842D100224FF49671FEF757
:102BC00065FC02E03220FFF74DFE00210320FEF7F6
:102BD000BBFD0028F6D000224FF496710120FEF7CD
:102BE00055FC00224FF496710220FEF74FFC02E0E4
:102BF0003220FFF737FE00210120FEF7A5FD002857
:102C0000F6D002E03220FFF72DFE00210220FEF771
:102C10009BFD0028F6D000224FF496710520FEF7A8
:102C200035FC0120454908604FF4FA70FFF71AFEA1
:102C300000204349C1F884013D4908704BE33C48FA
:102C40000078042870D1434800780128AFD10121D1
:102C50000846FDF719FE00BF3F49088801F0F2FA67
:102C600007460120FEF74CFE8046394601F0FEFA89
:102C7000F2D300210120FDF707FE3220FFF7F2FD1D
:102C800001210420FDF700FE01210520FDF7FCFDD8
:102C900000BF3149488801F0D5FA07460120FEF708
:102CA0002FFE8046394601F0E1FBF2D300210420DB
:102CB000FDF7EAFD26E055208DF808000A208DF882
:102CC000090000208DF80A008DF80B00FDF7C8FB05
:102CD000074601F07FFA86B230128DF80C00F0B290
:102CE0008DF80D000120FDF7BBFB074601F072FADD
:102CF00086B230128DF80E00F0B28DF80F0002A8E7
:102D0000FEF7C0F81449888801F09CFA07460120B4
:102D1000FEF7F6FD8046394601F0A8FBCBD3012132
:102D20000420FDF7B1FD19E029E000000024014076
:102D3000760000202D0000202E0000208401224279
:102D400000002242240000202600002078000020FD
:102D50000004004077000020700000204FF47A70DB
:102D6000FFF780FD4FF47A70FFF77CFD002104200F
:102D7000FDF78AFD00210520FDF786FDABE2FC484A
:102D800000780528FAD1FB4800780128F6D1F948E7
:102D900040780128F2D1F7488078E8B90121084647
:102DA000FDF772FD4FF4FA70FFF75CFD012105207D
:102DB000FDF76AFD4FF44870FFF754FD0121022032
:102DC000FDF762FD6420FFF74DFD0120FFF712F8CB
:102DD0006420E84988707EE2E6488078012827D19F
:102DE000E5483C2182680320FEF750FB02E03220D8
:102DF000FFF738FDE04881680320FEF7A5FC0028B6
:102E0000F5D0DD48B42102680120FEF73FFBDA4827
:102E1000B42142680220FEF739FB4FF47A70FFF7C5
:102E200021FD6420D34988700220FEF7E3FF52E2BF
:102E3000D048807802287CD101210320FDF724FDB1
:102E400000BFCE49486801F0DBF88246CC4ACD4B42
:102E500000F0B8FE074688460120FEF751FD824685
:102E600001F0CEF83A464346CDE9000100F06EFE8F
:102E7000E7D300210320FDF707FD01210420FDF722
:102E800003FD00BFBD49486801F0BAF807460022BB
:102E9000BD4B00F07BFC82468B460120FEF730FDE7
:102EA000074601F0ADF852465B46CDE9000100F05F
:102EB00087FFE7D300210420FDF7E6FC0121032072
:102EC000FDF7E2FC00BFAD49486801F099F80746FC
:102ED000AB4AAC4B00F076FECDE900010120FEF7D5
:102EE0000FFD074601F08CF88246DDE9002300F073
:102EF0002DFEE8D300210320FDF7C6FC01210420AC
:102F0000FDF7C2FC00BF9D49486801F079F8002236
:102F10009E4BCDE9000100F039FC82468B46012032
:102F2000FEF7EEFC019001F06BF8074652465B4657
:102F300000E011E000F044FFE5D300210420FDF79C
:102F4000A3FC4FF47A70FFF78DFC642089498870E8
:102F50000520FEF763FFBEE186488078032828D16C
:102F60000121FDF791FC00BF8449486801F048F851
:102F70000746874A874B00F025FECDE90001012076
:102F8000FEF7BEFC074601F03BF88246DDE9002370
:102F900000F0DCFDE8D300210320FDF775FC642080
:102FA000FFF760FC6420734988700720FEF736FF46
:102FB00091E170488078042806D164206D498870BA
:102FC0000520FEF717FF86E16A48807805281AD1A8
:102FD0007148B42102680120FEF758FA6E48B42106
:102FE00042680220FEF752FA4FF47A70FFF73AFC7B
:102FF0004FF47A70FFF736FC64205E498870032036
:10300000FEF7F8FE67E15B488078062855D16349F2
:10301000886801F0DFF887B239460420FEF706FC25
:103020005E48B42102680320FEF730FA02E0322045
:10303000FFF718FC594801680320FEF785FB0028BC
:10304000F5D056498868564901F044F9804601F0A8
:10305000C1F887B239460420FEF7E8FB4F49C8683B
:1030600001F09CF807464D48394642680320FEF7B8
:103070000DFA02E03220FFF7F5FB484841680320D3
:10308000FEF762FB0028F5D03B48B421826803209C
:10309000FEF7FCF902E03220FFF7E4FB36488168D6
:1030A0000320FEF751FB0028F5D000210420FEF795
:1030B000BDFB07202F4988700DE12E488078072836
:1030C00028D12D48B42102680120FEF7DFF92A48F3
:1030D000B42142680220FEF7D9F96420254988709E
:1030E00002E03220FFF7BEFB234801680120FEF713
:1030F0002BFB0028F5D002E03220FFF7B3FB1E487F
:1031000041680220FEF720FB0028F5D00D20FEF7D5
:1031100085FEE0E017488078082858D11648B42189
:10312000C2680120FEF7B2F91348B42102690220F7
:10313000FEF7ACF902E03220FFF794FB0E48C168BD
:103140000120FEF701FB0028F5D002E03220FFF756
:1031500089FB094801690220FEF7F6FA0028F5D03C
:103160000548B42182680320FEF790F91DE00000B5
:10317000760000208000002050010020680100201F
:10318000CDCCCCCCCCCCF43F00002440000034406B
:103190009A9999999999F13F680000207C01002043
:1031A0000000C0403220FFF75DFBCD48816803205E
:1031B000FEF7CAFA0028F5D001210620FDF764FBCE
:1031C0006420C84988700720FEF714FE83E0C548D4
:1031D000807809284CD1C448006800F0FBFF1FFA32
:1031E00080F8404601F02EF807463A460C210520AB
:1031F000FEF74CF900210520FDF746FB4FF47A70ED
:10320000FFF730FBB848006800F0E4FF80B200F13F
:10321000B408404600E061E100F0FCFF07463A4692
:103220000C210520FEF732F900210620FDF72CFBCA
:103230004FF47A70FFF716FB4FF49670FFF712FB0E
:103240000022B4210120FEF721F90022B42102203E
:10325000FEF71CF900210120FDF716FB00210220DA
:10326000FDF712FB00209F4908704870887032E01B
:103270009C4880780A282ED19948B4210268012000
:10328000FEF704F99648B42142680220FEF7FEF8E2
:1032900002E03220FFF7E6FA914801680120FEF7CC
:1032A00053FA0028F5D002E03220FFF7DBFA8C4811
:1032B00041680220FEF748FA0028F5D08848B4217A
:1032C00082680320FEF7E2F800208649087001209A
:1032D00048700020887085480078012850D155201A
:1032E0008DF8080004208DF8090002224FF4A46133
:1032F0000120FEF7A1FC3220FFF7B4FA02224FF4BE
:10330000A4610120FEF798FC3220FFF7ABFA784861
:10331000006878490968441A002C00DA0024200C5F
:103320008DF80A00200A8DF80B00E0B28DF80C0031
:1033300002224FF4A4611046FEF77EFC3220FFF714
:1033400091FA6B4840686B4909680C1A3220FFF704
:1033500089FA67484068674909680C1A002C00DA46
:103360000024200C8DF80D00200A8DF80E00E0B22C
:103370008DF80F0002A8FDF785FD00205B4908705D
:103380005D48407801287DD155208DF808000B203C
:103390008DF8090000208DF80B008DF80C005648C0
:1033A0000078012804D002282AD003287AD14FE0DF
:1033B00002224FF4A4610120FEF73EFC3220FFF709
:1033C00051FA02224FF4A4610120FEF735FC3220AD
:1033D000FFF748FA4648006846490968441A002C35
:1033E00000DA0024444800788DF80A00200C8DF89B
:1033F0000D00200A8DF80E00E0B28DF80F0051E0AC
:1034000002224FF4A4611046FEF716FC3220FFF7AB
:1034100029FA02224FF4A4611046FEF70DFC322077
:10342000FFF720FA32484068324909680C1A002C2C
:1034300000DA0024304800788DF80A00200C8DF85E
:103440000D00200A8DF80E00E0B28DF80F0029E083
:1034500002224FF4A4610320FEF7EEFB3220FFF7B7
:1034600001FA02224FF4A4610320FEF7E5FB3220AB
:10347000FFF7F8F91E4880681E4909680C1A002CED
:1034800002DA00E015E000241B4800788DF80A00FD
:10349000200C8DF80D00200A8DF80E00E0B28DF89A
:1034A0000F0000BF00BF02A8FDF7ECFC002012498E
:1034B000487012480078012805D11148FDF7F0FA4C
:1034C00000200E49087002E001200E4908600E48F5
:1034D00000680028F8D000200A490860FFF79EBA6B
:1034E0005001002080000020480000208A000020B9
:1034F000B8000020180000207E00002045000020B9
:1035000035000020800122423881224210B586B069
:103510000446012144F20400FEF742FA4FF4007021
:10352000ADF8140003208DF8160018208DF8170050
:1035300005A92048FDF7DEFC4FF48060ADF81400CB
:1035400004208DF8170005A91A48FDF7D3FC2520A3
:103550008DF8000003208DF801008DF80200012095
:103560008DF803006846FEF787F901940020ADF856
:103570000800ADF80A00ADF80C00ADF810000C2002
:10358000ADF80E0001A90C48FFF700F8012240F247
:1035900025510948FEF7D4FF01210748FEF78DFFAA
:1035A000002006490870012048700020887006B08D
:1035B00010BD0000000801400038014080000020DC
:1035C00021F00042A2F16052B2F5801F01F00043E9
:1035D00028BFD2F17F6C0BD95FEA001C43EAC2021C
:1035E00042EB507018BF704728BF20F001007047B1
:1035F000B2F5801FBCBF184670474FEA410C1CF55E
:10360000001F02D2084600F02CBF70B500F084FB0A
:1036100000000089FFF7F6BF4FF00040A0F58000E2
:103620007047000010B591EA030F48BF83F00043D4
:1036300000F10484841A71EB030C05D2121943EBD8
:103640000C03001B61EB0C01DFF824E14FEA11547D
:10365000A4EB135C1EEA430F18BF9EEA445F73D0CD
:1036600023EA0E03DCF1200E21EA045143F4801317
:1036700032D322FA0CFE10EB0E0023FA0CFE41EBC3
:103680000E01CCF1200E03FA0EFE10EB0E0051F1EC
:103690000001B1F5801FCCF1200E32D201EB0451B4
:1036A00012FA0EF2BDE8104058BF7047401C38BFF8
:1036B0005FEA420218BF7047002814BF20F00100E3
:1036C00041F100014FEA410313F5001F38BF704775
:1036D000A1F1C04100F06EBB012A43EB0302ACF143
:1036E000200CDCF11F0E32BF4FF0000E23FA0CF35A
:1036F00010EB030041EB0451B4EB115FD0D0A1EB10
:10370000045101F5801149085FEA300001EB0451D2
:103710000ED350F1000038BF12FA0EFE08D1BDE8FA
:103720001040C9E7401C38BF5FEA4202CAD1C3E774
:10373000BDE810404FEA410313F5001F38BF704742
:10374000A1F1C04100F036BB9EEA445F08D011EA07
:103750005E0FBDE8104004BF01F00041002070473B
:10376000BDE8104070B500F0D7FA00BF64FBBE3E64
:103770000000E0FF491058BFC1F140415B1058BF45
:10378000C3F140438B42EFF3008070472DE9C04105
:1037900030B4DFF8A0C23CEA111418BF3CEA13149D
:1037A00000F0EC8081EA03051CEA111444EAD574A8
:1037B00018BF1CEA131500F0C780A4EB05044FF0F6
:1037C000004545EAC12145EAC32341EA505143EA95
:1037D000525304F17F74994204F500344FEAC0203B
:1037E0004FEAC22208BF904200F09C804FEA136566
:1037F0000FF24016765D4FEA134506FB05F7C7F159
:10380000807706FB07F74FEAD737A7FB03687642B6
:10381000C8F58038A7FB06CE38BFA8F1010807FB22
:1038200008E64FF0000EA6FB028CE6FB03CEDCF1AF
:10383000000CCEF1004E38BFAEF1010EA6FB0C58C5
:103840004FF000074FF00005E6FB0E87A1FB08C60E
:10385000A0FB07CE16EB0E0645F10005E1FB076560
:1038600015F1E04E7EBFA4F580345FEA46066D4157
:1038700016F1800745F100054FEA17274FEA066663
:1038800047EA0567A6F1DE46B6F1805F4FEA1525E7
:103890001FD9384624F0010C05EBC471BCF1FE6F52
:1038A00001EB0C1102D8F0BCBDE8008124425CBFE2
:1038B00001F5801E9EEAC47F02D4F0BCBDE8008101
:1038C000244238D4F0BCA1F1C041BDE8004100F071
:1038D00071BA4FEAD22242EA43524FEAD323A7FBFE
:1038E00002864FEAD02040EA415007FB03661EEAF9
:1038F0000E0F4FEAD12105FB026658BFA6EB00561A
:10390000B6EB00564FEA520E4EEAC37E18EB0E0E8F
:1039100056EB530EBDD518EB02085E417F1C55F1E6
:103920000005B6E74FF480154FF000074FF0000692
:103930004FF00008ADE7F0BC4FF0000001F1C041CE
:1039400001F00041BDE8008111EA0C1F0CEA1315DB
:1039500000D00CE013EA0C1F00F025804FF00000AF
:10396000F0BC81EA030101F00041BDE80081F0BC38
:10397000BDE8004181EA030100F01CBAF0BCBDE8DB
:10398000004170B500F0C8F9097EFC3E00F007B8B0
:1039900081EA03014FF0000001F00041704781EA25
:1039A000030100F007BAF0BCBDE800414FF0000091
:1039B00021497047FFFDFBF9F7F5F4F2F0EEEDEB6E
:1039C000E9E8E6E4E3E1E0DEDDDBDAD8D7D5D4D31D
:1039D000D1D0CFCDCCCBCAC8C7C6C5C4C2C1C0BF69
:1039E000BEBDBCBBBAB9B8B7B6B5B4B3B2B1B0AF6F
:1039F000AEADACABAAA9A8A8A7A6A5A4A3A3A2A153
:103A0000A09F9F9E9D9C9C9B9A999998979796950D
:103A100095949393929191908F8F8E8E8D8C8C8BA9
:103A20008B8A898988888787868585848483838231
:103A3000828181800000FF070000F87F4FEA410388
:103A40004FEA5353A3F58063D3F11E03C8BFD3F1EC
:103A5000210C0CDD4FF0004242EAC12242EA5052F2
:103A600032FA03FC8CEAE17CACEBE1707047102B7E
:103A7000C4BF0020704703F5787CBCF1FF3F04D041
:103A80006FF0004282EA2100704770B500F044F9FF
:103A90004992248000207047F2E700004FEA11535A
:103AA000A3F58063D3F11E03A8BFD3F1200C08DB7C
:103AB0004FF0004242EAC12252EA505232FA03F079
:103AC000704709420BD4102BC4BF0020704703F588
:103AD000787CBCF1FF3F05D04FF0FF3070474FF0CE
:103AE0000000704770B500F017F900BF49922480BC
:103AF00000207047F0E710F0004248BF4042B0FAA3
:103B000080F310FA03F10AD0C3F11D0303F58063BB
:103B10004FEA415002EB035202EBD12170474FF0C4
:103B200000007047B0FA80F310FA03F10AD0C3F135
:103B30001D0303F580634FEA41504FEA035202EB45
:103B4000D12170474FF000007047000051EA030C8C
:103B500017D41CF5801F58BFBCF5801F00F10680EC
:103B6000994218BF704708BF9042704707D711F5B8
:103B7000801F58BF13F5801F19D49942704789429E
:103B800070471CF5801F08D5BCF5801FF7D58B4208
:103B900018BF704708BF824270474FF4001C1CEBEF
:103BA000410F38BF1CEB430F01D28B42704770B5F9
:103BB00000F0B2F8922449004FF000514FF08053CA
:103BC000FFF7D8BDDFF848C170B51CEA111E1EBF53
:103BD0001CEA13159EEA0C0F95EA0C0F00F06F809B
:103BE00081EA030423EA4C134EEAD47E21EA4C1105
:103BF00041F4801143F48013AE44A1FB024CA0FBBE
:103C00000365AEF17F7E361955EB0C05A1FB034C25
:103C10004CF10003A0FB021C16EB0C06654153F1AE
:103C20000003094218BF46F0010613F4007F0BD1D0
:103C30004FEA03314FEA0530340341EA155140EAB7
:103C400016506FF003020AE04FEAC3214FEAC52085
:103C5000F40241EA555140EA56506FF0020202EB7D
:103C60002E4201EB025585EACE710AD05FEA440C80
:103C700018BF24F0004450F1000041F1000120EA97
:103C8000D47040F2FE7C624500D270BDA84214BFE1
:103C90004FF080444FF04044002E08BF0024BEF196
:103CA000806FA8BFA1F1C041BDE8704080F2828062
:103CB0004FF0000001F1C04101F0004170479EEA61
:103CC0000C0F0CEA131518BF95EA0C0F06D04FF035
:103CD000000081EA030E0EF0004170BD00F01CF8F8
:103CE0008900013E00F007B800F009B84FEA430C24
:103CF0005FEA5C5C08D081EA030100F05BB84FEA40
:103D0000410C5FEA5C5CF6D14FF00000014970475E
:103D10000000FF070000F87F0EF1020E2EF0030EE8
:103D20005EF8046B364205D4012A43EB030515F512
:103D3000001F12D8012841EB010C1CF5001F0CD804
:103D40000ED14FEAD17C15F5001F0CEB4C0C0CF199
:103D5000020C08BF4CEBD37C04E04FF0080C01E0F0
:103D60004FEAD37C0CEB4C0526FA05F606F0070665
:103D7000B6F1040C06D20EEB860CBDE870404CF098
:103D8000010C6047DFE80CF0090B02024FF0004124
:103D90004FF00000A1F5002170BD19461046012822
:103DA00051EB010418BFD4F5001484BF002001F0CA
:103DB000004170BD0808A0F500114FEA31017047BD
:103DC00053EA010C17D41CF5801F58BFBCF5801FA7
:103DD00000F106808B4218BF704708BF82427047CF
:103DE00007D713F5801F58BF11F5801F19D48B42D8
:103DF00070479B4270471CF5801F08D5BCF5801F9B
:103E0000F7D5994218BF704708BF904270474FF4EA
:103E1000001C1CEB430F38BF1CEB410F01D2994231
:103E200070470FB40CBC03BCFFF7C1BE10B591EADC
:103E3000030F48BF83F000433FF5FCAB841A71EBDE
:103E4000030C07D212198CF0004C43EB0C03001B3F
:103E500061EB0C01DFF8A4E14FEA1154A4EB135C11
:103E60001EEA430F18BF9EEA445F00F0B08023EAC9
:103E70006E03524221EA0451C3EB6E0338BF5B1E4E
:103E8000DCF1200E25D322FA0CFE10EB0E0043FAD3
:103E90000CFE41EB0E01CCF1200E03FA0EFE10EBEE
:103EA0000E0051F10001CCF1200E29D412FA0EF2CD
:103EB00001EB0451BDE8104058BF7047401C1CBFC7
:103EC000B2F1004F704700280CBF491C20F00100E0
:103ED000704712EB020E43EB030218BF4FF0010EC6
:103EE0004EEA4202ACF1200CDCF11E0E54D943FA2A
:103EF0000CFE10EB0E0051F1FF31CCF11E0ED5D5AA
:103F00000EF1010E12FA0EFE404141EB010101EBF0
:103F1000445C5FEA5C5C10D910EBDE7001EB04518D
:103F200038BFBEF1004FBDE8104018BF70470028F1
:103F30000CBF491C20F00100704730D24FEAD42C4E
:103F400011F5001124F400641BD0B1FA81F20B3A90
:103F5000A41AA41ED2F12003914030FA03F31943AE
:103F6000904001EBCC71002C01EB0451BDE81040F6
:103F7000A8BF704701F1C0414FF0000001F00041BF
:103F80007047B0FA80F310FA03F100D110BDE41AC3
:103F9000173C4805C90AE4E701EB045110BD49107C
:103FA00001EB0451BDE810404FEA300002E04FF051
:103FB000000170474A0008BF0042F8D0B2F5001F68
:103FC00028BF704701F000414FF0000070479EEAA3
:103FD000445F07D011EA5E0FBDE8104004BF002126
:103FE00000207047BDE8104070B5FFF795FE00BF98
:103FF00040DFF63E83F00041104670470000E0FFCE
:1040000043004FEAD30C4FEA3C0C43401FBF40072C
:104010000CF1605113F0FE4F70471CF0006F03D19C
:1040200000200CF0004170470CF0004343EA507050
:1040300010B540EACC0000F0CEF900BF00000092BD
:104040004FEA0001FFF7B6BE4FF000414FF000000D
:10405000A1F500217047000090EA010F48BF81F0F0
:10406000004100F13C82421A3CBF801A89184FEA95
:10407000D0524FF07F4C1CEA410FA2EBD15318BF36
:104080009CEA026F00F03B804FF0004C4CEA0020AD
:104090004CEA012121FA03FC10EB0C0C1ED202F1B8
:1040A000FF325FEA1C2040EBC25038BF70471CF063
:1040B0007F0F4FEA400C18BFBCF17F4F38BF7047ED
:1040C000C3F12003994008BF20F00100BCF17F4FED
:1040D00038BF7047A0F1C04000F0C3B94FEA3C00C0
:1040E000000A40EBC25028BF1CF0FF0F4FEA400C03
:1040F000E6D018BFBCF17F4F38BF7047EAE79CEAB3
:10410000026F05D010EA5C0F08BF00F00040704756
:1041100010B500F060F900BF64FBBE3E401058BF10
:10412000C0F14040491058BFC1F140418142EFF316
:104130000080704750EA010C00F113801CF5000F5D
:1041400058BFBCF5000F01D48842704707D710F55F
:10415000000F58BF11F5000F15D4884270478942EF
:1041600070471CF5000F04D5BCF5000FF7D5814250
:1041700070474FF0807C1CEB400F38BF1CEB410FA9
:1041800001D28142704710B500F025F99224490010
:104190004FF000504FF08051FFF7C0BF41000B0EB1
:1041A000D3F19E0208D950F400034FEA032323FA07
:1041B00002F048BF4042704710B500F00CF900BF54
:1041C00049922480002070476FF0004282EA20006C
:1041D00070470000C10DD1F19E0206DB4FEA0023BB
:1041E00043F0004323FA02F07047004207D54FEA3C
:1041F0004001B1F1FE4F02D24FF00000704710B500
:1042000000F0E9F849922480002070476FEA20000E
:104210007047000010F0004148BF4042B0FA80F300
:1042200010FA03F2C3F19D030BD051EAC35101EB25
:104230001220530638BF704700F1010008BF20F07C
:1042400001007047B0FA80F310FA03F2C3F19D0346
:104250000AD0D90501EB1220530638BF704700F190
:10426000010008BF20F001007047000050EA010C77
:1042700000F113801CF5000F58BFBCF5000F01D4EE
:104280008842704707D710F5000F58BF11F5000F8F
:1042900015D488427047894270471CF5000F04D539
:1042A000BCF5000FF7D5814270474FF0807C1CEBC6
:1042B000400F38BF1CEB410F01D28142704710B54F
:1042C00000F089F8922449004FF000504FF08051DF
:1042D000FFF724BF4FF47F0C1CEAD0121EBF1CEA6C
:1042E000D11392EA0C0F93EA0C0F00F0478090EA8A
:1042F000010F48BF42F480724FF0004C4CEA00209E
:104300004CEA012102EB0302A0FB0113A2F500021B
:10431000002918BF43F001035B0028BF4FEA3303B5
:1043200042EB22425FEA132C4CEBC2502EBFBCEB97
:10433000436FB2F57C0F70474FEA036CBCF1004F3E
:1043400008BF20F00100B2F57C0F38BF70470BD5D5
:1043500082F0FF0212F5803FC8BF704700F1C040F5
:10436000D8BF00F00040704700F5000C5FEA4C0C2D
:1043700048BF7047B0F1C04000F073B890EA010F39
:104380000CEAD11348BF42F48072624538BF6345DE
:1043900004D280EA010000F00040704710B500F040
:1043A0001AF800BF8900013E00F007B800F009B814
:1043B0005FEA410C5FEA1C6C08D080EA010000F063
:1043C00050B85FEA400C5FEA1C6CF6D14FF0004039
:1043D000A0F5800070470EF1020E2EF0030E5EF87D
:1043E000044B244204D44FEA4102B2F17F4F11D86A
:1043F0004FEA4003B3F17F4F0CD80ED14FEAD07C87
:10440000B2F17F4F0CEB4C0C0CF1020C08BF4CEBE3
:10441000D17C04E04FF0080C01E04FEAD17C0CEBBA
:104420004C0324FA03F404F00704B4F1040C06D29C
:104430000EEB840CBDE810404CF0010C6047DFE847
:104440000CF0070802024FF00040A0F5800010BDFC
:104450000846420018BFD2F1807288BF00F00040C9
:1044600010BDFF2141EAD050C005704751EA000C51
:1044700000F113801CF5000F58BFBCF5000F01D4EC
:104480008142704707D711F5000F58BF10F5000F94
:1044900015D481427047894270471CF5000F04D53E
:1044A000BCF5000FF7D5884270474FF0807C1CEBBD
:1044B000410F38BF1CEB400F01D28842704780EAA1
:1044C000010081EA000180EA0100FFF7F8BE000068
:1044D00090EA010F48BF81F000413FF5C4AD421A98
:1044E00004D882F00042A0EB020011444FEAD052FF
:1044F0004FF07F4C1CEA410FA2EBD15318BF9CEA4E
:10450000026F4AD04FF0004C4CEA00204CEA0121E7
:1045100021FA03FCB0EB0C0C0FD412F0FE0F36D0D6
:104520005FEA4C001DD5001240EBC25038BF704707
:104530001CF03F0F18BF70470BE0A2F101025FEAC9
:104540001C2040EBC25038BF70471CF07F0F18BFD3
:104550007047C3F12003994014BF401E20F00100B2
:10456000704780084FEA122308BF7047B0FA80FCFA
:10457000A2EB0C02CCF1280C60FA0CF093EA122F9B
:1045800004BF00EBC25070474FEAC3707047130A74
:104590005FEADC1008BF7047F6E79CEA026F04D0C0
:1045A00010EA5C0F08BF0020704710B5FFF713FF3B
:1045B00040DFF63E81F0004070470000DC45000817
:1045C00000000020A00000006C0100087C460008EC
:1045D000A0000020180800008801000800A24A047A
:1045E00000000000000000000102030406070809A3
:1045F00000000000000000000000000000000000BB
:1046000000000000000000000000000000000000AA
:10461000000000000000000000000000000000009A
:10462000000000000000000000007A4400000000CC
:1046300000007A440000000000007A4400000000FE
:104640000000803F000000000000000000000000AB
:10465000000000000000000000000000000000005A
:10466000000000000000000000000001020304013F
:0C46700002030406070809020406080003
:04000005080001CD21
:00000001FF
